{
  "contractName": "Grading",
  "abi": [
    {
      "constant": true,
      "inputs": [
        {
          "name": "",
          "type": "uint256"
        }
      ],
      "name": "students",
      "outputs": [
        {
          "name": "id",
          "type": "uint256"
        },
        {
          "name": "name",
          "type": "string"
        },
        {
          "name": "grade",
          "type": "string"
        },
        {
          "name": "pk",
          "type": "string"
        }
      ],
      "payable": false,
      "stateMutability": "view",
      "type": "function",
      "signature": "0x06ead22e"
    },
    {
      "inputs": [
        {
          "name": "",
          "type": "uint256"
        }
      ],
      "payable": false,
      "stateMutability": "view",
      "type": "function",
      "constant": true,
      "name": "studentCount",
      "outputs": [
        {
          "name": "",
          "type": "uint256"
        },
        {
          "name": "grade",
          "type": "string"
        }
      ],
      "signature": "0x3361a35b"
    },
    {
      "inputs": [],
      "payable": false,
      "stateMutability": "nonpayable",
      "type": "constructor",
      "signature": "constructor",
      "constant": true,
      "name": "i",
      "outputs": [
        {
          "name": "",
          "type": "uint256"
        }
      ]
    },
    {
      "constant": false,
      "inputs": [
        {
          "name": "_name",
          "type": "string"
        },
        {
          "name": "_pk",
          "type": "string"
        }
      ],
      "name": "addStudent",
      "outputs": [
        {
          "name": "",
          "type": "uint256"
        }
      ],
      "payable": false,
      "stateMutability": "nonpayable",
      "type": "function",
      "signature": "0xe27bb1f7"
    },
    {
      "constant": false,
      "inputs": [
        {
          "name": "_name",
          "type": "string"
        }
      ],
      "name": "addStudent",
      "outputs": [],
      "payable": false,
      "stateMutability": "nonpayable",
      "type": "function",
      "signature": "0x453e056a"
    },
    {
      "constant": false,
      "inputs": [
        {
          "name": "_name",
          "type": "string"
        }
      ],
      "name": "addStudent",
      "outputs": [],
      "payable": false,
      "stateMutability": "nonpayable",
      "type": "function",
      "signature": "0x453e056a"
    },
    {
      "constant": false,
      "inputs": [
        {
          "name": "_grade",
          "type": "string"
        }
      ],
      "name": "addGrade",
      "outputs": [],
      "payable": false,
      "stateMutability": "nonpayable",
      "type": "function",
      "signature": "0xd7ce4893"
    }
  ],
  "bytecode": "0x6080604052606060405190810160405280604081526020017f353663646461353739653439633738333135396463383738396566316232353081526020017f39333365373535303835373164313466663035653131666633346466333364358152506000908051906020019062000078929190620004d7565b503480156200008657600080fd5b50620001336040805190810160405280600881526020017f53747564656e7431000000000000000000000000000000000000000000000000815250606060405190810160405280604081526020017f336532653633666361393163663134623064313662633532636437346131383981526020017f3065383430373332316338643330383138353864343132346331656266306664815250620003e9640100000000026401000000009004565b620001df6040805190810160405280600881526020017f53747564656e7432000000000000000000000000000000000000000000000000815250606060405190810160405280604081526020017f353234363261373065646334653731653534623334663834313436306639346681526020017f6565663130376535346632633833356138383330336266313163343132383362815250620003e9640100000000026401000000009004565b6200028b6040805190810160405280600881526020017f53747564656e7433000000000000000000000000000000000000000000000000815250606060405190810160405280604081526020017f336137353239353933643936313330643465663631623666333339363739616281526020017f3331653734353563663864613364363764346431313765646364386631633061815250620003e9640100000000026401000000009004565b620003376040805190810160405280600881526020017f53747564656e7434000000000000000000000000000000000000000000000000815250606060405190810160405280604081526020017f356331623266336166633963616534653030383936626264663531316664323681526020017f6633336166313664323637373739623864393735373233616130633637636537815250620003e9640100000000026401000000009004565b620003e36040805190810160405280600881526020017f53747564656e7435000000000000000000000000000000000000000000000000815250606060405190810160405280604081526020017f386536306234393534633635656633386435363465313132633162643332323581526020017f6337633561663861323131613365666330613565363636376432333066646231815250620003e9640100000000026401000000009004565b6200060d565b60026000815480929190600101919050555060806040519081016040528060025481526020018381526020016040805190810160405280600c81526020017f4e6f742041737369676e65640000000000000000000000000000000000000000815250815260200182815250600160006002548152602001908152602001600020600082015181600001556020820151816001019080519060200190620004919291906200055e565b506040820151816002019080519060200190620004b09291906200055e565b506060820151816003019080519060200190620004cf9291906200055e565b509050505050565b828054600181600116156101000203166002900490600052602060002090601f016020900481019282601f106200051a57805160ff19168380011785556200054b565b828001600101855582156200054b579182015b828111156200054a5782518255916020019190600101906200052d565b5b5090506200055a9190620005e5565b5090565b828054600181600116156101000203166002900490600052602060002090601f016020900481019282601f10620005a157805160ff1916838001178555620005d2565b82800160010185558215620005d2579182015b82811115620005d1578251825591602001919060010190620005b4565b5b509050620005e19190620005e5565b5090565b6200060a91905b8082111562000606576000816000905550600101620005ec565b5090565b90565b610730806200061d6000396000f3fe608060405260043610610057576000357c0100000000000000000000000000000000000000000000000000000000900463ffffffff16806306ead22e1461005c578063e27bb1f7146101ef578063e581f9ee1461034e575b600080fd5b34801561006857600080fd5b506100956004803603602081101561007f57600080fd5b8101908080359060200190929190505050610379565b60405180858152602001806020018060200180602001848103845287818151815260200191508051906020019080838360005b838110156100e35780820151818401526020810190506100c8565b50505050905090810190601f1680156101105780820380516001836020036101000a031916815260200191505b50848103835286818151815260200191508051906020019080838360005b8381101561014957808201518184015260208101905061012e565b50505050905090810190601f1680156101765780820380516001836020036101000a031916815260200191505b50848103825285818151815260200191508051906020019080838360005b838110156101af578082015181840152602081019050610194565b50505050905090810190601f1680156101dc5780820380516001836020036101000a031916815260200191505b5097505050505050505060405180910390f35b3480156101fb57600080fd5b5061034c6004803603604081101561021257600080fd5b810190808035906020019064010000000081111561022f57600080fd5b82018360208201111561024157600080fd5b8035906020019184600183028401116401000000008311171561026357600080fd5b91908080601f016020809104026020016040519081016040528093929190818152602001838380828437600081840152601f19601f820116905080830192505050505050509192919290803590602001906401000000008111156102c657600080fd5b8201836020820111156102d857600080fd5b803590602001918460018302840111640100000000831117156102fa57600080fd5b91908080601f016020809104026020016040519081016040528093929190818152602001838380828437600081840152601f19601f820116905080830192505050505050509192919290505050610571565b005b34801561035a57600080fd5b50610363610659565b6040518082815260200191505060405180910390f35b6001602052806000526040600020600091509050806000015490806001018054600181600116156101000203166002900480601f01602080910402602001604051908101604052809291908181526020018280546001816001161561010002031660029004801561042b5780601f106104005761010080835404028352916020019161042b565b820191906000526020600020905b81548152906001019060200180831161040e57829003601f168201915b505050505090806002018054600181600116156101000203166002900480601f0160208091040260200160405190810160405280929190818152602001828054600181600116156101000203166002900480156104c95780601f1061049e576101008083540402835291602001916104c9565b820191906000526020600020905b8154815290600101906020018083116104ac57829003601f168201915b505050505090806003018054600181600116156101000203166002900480601f0160208091040260200160405190810160405280929190818152602001828054600181600116156101000203166002900480156105675780601f1061053c57610100808354040283529160200191610567565b820191906000526020600020905b81548152906001019060200180831161054a57829003601f168201915b5050505050905084565b60026000815480929190600101919050555060806040519081016040528060025481526020018381526020016040805190810160405280600c81526020017f4e6f742041737369676e6564000000000000000000000000000000000000000081525081526020018281525060016000600254815260200190815260200160002060008201518160000155602082015181600101908051906020019061061792919061065f565b50604082015181600201908051906020019061063492919061065f565b50606082015181600301908051906020019061065192919061065f565b509050505050565b60025481565b828054600181600116156101000203166002900490600052602060002090601f016020900481019282601f106106a057805160ff19168380011785556106ce565b828001600101855582156106ce579182015b828111156106cd5782518255916020019190600101906106b2565b5b5090506106db91906106df565b5090565b61070191905b808211156106fd5760008160009055506001016106e5565b5090565b9056fea165627a7a7230582090a154d66b26536995815cf4792d0ce1baa9e27231eb4404a087f63d32488df20029",
  "source": "pragma solidity ^0.5.0;\r\n\r\n/**\r\n * The grading contract does this and that...\r\n */\r\ncontract Grading {\r\n\t//Model a student\r\n\tstruct Student {\r\n\t\tuint id;\r\n\t\tstring name;\r\n\t\tstring grade;\r\n\t\tstring pk;\r\n\t}\r\n\r\n\tstring profpk = \"56cdda579e49c783159dc8789ef1b250933e75508571d14ff05e11ff34df33d5\";\r\n\r\n\t//Read student\r\n\tmapping(uint => Student) public students;\r\n\r\n\tconstructor () public {\r\n\t\taddStudent(\"Student1\", \"3e2e63fca91cf14b0d16bc52cd74a1890e8407321c8d3081858d4124c1ebf0fd\");\r\n\t\taddStudent(\"Student2\", \"52462a70edc4e71e54b34f841460f94feef107e54f2c835a88303bf11c41283b\");\r\n\t\taddStudent(\"Student3\", \"3a7529593d96130d4ef61b6f339679ab31e7455cf8da3d67d4d117edcd8f1c0a\");\r\n\t\taddStudent(\"Student4\", \"5c1b2f3afc9cae4e00896bbdf511fd26f33af16d267779b8d975723aa0c67ce7\");\r\n\t\taddStudent(\"Student5\", \"8e60b4954c65ef38d564e112c1bd3225c7c5af8a211a3efc0a5e6667d230fdb1\");\r\n\t}\r\n\t\r\n\t\t//Store Student Count\r\n\tuint public studentCount;\r\n\r\n\tfunction addStudent (string memory _name, string memory _pk) public {\r\n\t\tstudentCount ++;\r\n\t\tstudents[studentCount] = Student(studentCount, _name, \"Not Assigned\", _pk);\r\n\t}\t\r\n\t\t\r\n}\r\n\t\r\n\r\n\r\n\t\r\n\r\n",
  "sourcePath": "C:/Users/user/Desktop/grading/contracts/grading.sol",
  "compiler": {
    "name": "solc",
    "version": "0.5.0+commit.1d4f565a.Emscripten.clang"
  },
  "schemaVersion": "3.0.8",
  "updatedAt": "2019-05-06T18:09:18.266Z",
  "devdoc": {
    "methods": {}
  },
  "userdoc": {
    "methods": {},
    "notice": "The grading contract does this and that...\r"
  }
}